{
  "contractName": "SolnSquareVerifier",
  "abi": [
    {
      "constant": true,
      "inputs": [
        {
          "name": "interfaceId",
          "type": "bytes4"
        }
      ],
      "name": "supportsInterface",
      "outputs": [
        {
          "name": "",
          "type": "bool"
        }
      ],
      "payable": false,
      "stateMutability": "view",
      "type": "function"
    },
    {
      "constant": true,
      "inputs": [],
      "name": "name",
      "outputs": [
        {
          "name": "",
          "type": "string"
        }
      ],
      "payable": false,
      "stateMutability": "view",
      "type": "function"
    },
    {
      "constant": true,
      "inputs": [
        {
          "name": "tokenId",
          "type": "uint256"
        }
      ],
      "name": "getApproved",
      "outputs": [
        {
          "name": "",
          "type": "address"
        }
      ],
      "payable": false,
      "stateMutability": "view",
      "type": "function"
    },
    {
      "constant": false,
      "inputs": [
        {
          "name": "to",
          "type": "address"
        },
        {
          "name": "tokenId",
          "type": "uint256"
        }
      ],
      "name": "approve",
      "outputs": [],
      "payable": false,
      "stateMutability": "nonpayable",
      "type": "function"
    },
    {
      "constant": false,
      "inputs": [
        {
          "name": "_paused",
          "type": "bool"
        }
      ],
      "name": "setPaused",
      "outputs": [],
      "payable": false,
      "stateMutability": "nonpayable",
      "type": "function"
    },
    {
      "constant": true,
      "inputs": [],
      "name": "totalSupply",
      "outputs": [
        {
          "name": "",
          "type": "uint256"
        }
      ],
      "payable": false,
      "stateMutability": "view",
      "type": "function"
    },
    {
      "constant": false,
      "inputs": [
        {
          "name": "from",
          "type": "address"
        },
        {
          "name": "to",
          "type": "address"
        },
        {
          "name": "tokenId",
          "type": "uint256"
        }
      ],
      "name": "transferFrom",
      "outputs": [],
      "payable": false,
      "stateMutability": "nonpayable",
      "type": "function"
    },
    {
      "constant": false,
      "inputs": [
        {
          "name": "_myid",
          "type": "bytes32"
        },
        {
          "name": "_result",
          "type": "string"
        }
      ],
      "name": "__callback",
      "outputs": [],
      "payable": false,
      "stateMutability": "nonpayable",
      "type": "function"
    },
    {
      "constant": true,
      "inputs": [
        {
          "name": "owner",
          "type": "address"
        },
        {
          "name": "index",
          "type": "uint256"
        }
      ],
      "name": "tokenOfOwnerByIndex",
      "outputs": [
        {
          "name": "",
          "type": "uint256"
        }
      ],
      "payable": false,
      "stateMutability": "view",
      "type": "function"
    },
    {
      "constant": false,
      "inputs": [
        {
          "name": "_myid",
          "type": "bytes32"
        },
        {
          "name": "_result",
          "type": "string"
        },
        {
          "name": "_proof",
          "type": "bytes"
        }
      ],
      "name": "__callback",
      "outputs": [],
      "payable": false,
      "stateMutability": "nonpayable",
      "type": "function"
    },
    {
      "constant": false,
      "inputs": [
        {
          "name": "from",
          "type": "address"
        },
        {
          "name": "to",
          "type": "address"
        },
        {
          "name": "tokenId",
          "type": "uint256"
        }
      ],
      "name": "safeTransferFrom",
      "outputs": [],
      "payable": false,
      "stateMutability": "nonpayable",
      "type": "function"
    },
    {
      "constant": true,
      "inputs": [
        {
          "name": "index",
          "type": "uint256"
        }
      ],
      "name": "tokenByIndex",
      "outputs": [
        {
          "name": "",
          "type": "uint256"
        }
      ],
      "payable": false,
      "stateMutability": "view",
      "type": "function"
    },
    {
      "constant": true,
      "inputs": [
        {
          "name": "tokenId",
          "type": "uint256"
        }
      ],
      "name": "ownerOf",
      "outputs": [
        {
          "name": "",
          "type": "address"
        }
      ],
      "payable": false,
      "stateMutability": "view",
      "type": "function"
    },
    {
      "constant": true,
      "inputs": [
        {
          "name": "owner",
          "type": "address"
        }
      ],
      "name": "balanceOf",
      "outputs": [
        {
          "name": "",
          "type": "uint256"
        }
      ],
      "payable": false,
      "stateMutability": "view",
      "type": "function"
    },
    {
      "constant": true,
      "inputs": [],
      "name": "getOwner",
      "outputs": [
        {
          "name": "owner",
          "type": "address"
        }
      ],
      "payable": false,
      "stateMutability": "view",
      "type": "function"
    },
    {
      "constant": true,
      "inputs": [
        {
          "name": "data",
          "type": "bytes32"
        }
      ],
      "name": "bytes32ToString",
      "outputs": [
        {
          "name": "",
          "type": "string"
        }
      ],
      "payable": false,
      "stateMutability": "pure",
      "type": "function"
    },
    {
      "constant": true,
      "inputs": [
        {
          "name": "v",
          "type": "uint256"
        }
      ],
      "name": "uintToBytes",
      "outputs": [
        {
          "name": "ret",
          "type": "bytes32"
        }
      ],
      "payable": false,
      "stateMutability": "pure",
      "type": "function"
    },
    {
      "constant": true,
      "inputs": [],
      "name": "symbol",
      "outputs": [
        {
          "name": "",
          "type": "string"
        }
      ],
      "payable": false,
      "stateMutability": "view",
      "type": "function"
    },
    {
      "constant": false,
      "inputs": [
        {
          "name": "to",
          "type": "address"
        },
        {
          "name": "approved",
          "type": "bool"
        }
      ],
      "name": "setApprovalForAll",
      "outputs": [],
      "payable": false,
      "stateMutability": "nonpayable",
      "type": "function"
    },
    {
      "constant": false,
      "inputs": [
        {
          "name": "from",
          "type": "address"
        },
        {
          "name": "to",
          "type": "address"
        },
        {
          "name": "tokenId",
          "type": "uint256"
        },
        {
          "name": "_data",
          "type": "bytes"
        }
      ],
      "name": "safeTransferFrom",
      "outputs": [],
      "payable": false,
      "stateMutability": "nonpayable",
      "type": "function"
    },
    {
      "constant": true,
      "inputs": [
        {
          "name": "tokenId",
          "type": "uint256"
        }
      ],
      "name": "tokenURI",
      "outputs": [
        {
          "name": "",
          "type": "string"
        }
      ],
      "payable": false,
      "stateMutability": "view",
      "type": "function"
    },
    {
      "constant": true,
      "inputs": [],
      "name": "baseTokenURI",
      "outputs": [
        {
          "name": "",
          "type": "string"
        }
      ],
      "payable": false,
      "stateMutability": "view",
      "type": "function"
    },
    {
      "constant": true,
      "inputs": [
        {
          "name": "owner",
          "type": "address"
        },
        {
          "name": "operator",
          "type": "address"
        }
      ],
      "name": "isApprovedForAll",
      "outputs": [
        {
          "name": "",
          "type": "bool"
        }
      ],
      "payable": false,
      "stateMutability": "view",
      "type": "function"
    },
    {
      "constant": false,
      "inputs": [
        {
          "name": "newOwner",
          "type": "address"
        }
      ],
      "name": "transferOwnership",
      "outputs": [],
      "payable": false,
      "stateMutability": "nonpayable",
      "type": "function"
    },
    {
      "constant": false,
      "inputs": [
        {
          "name": "a",
          "type": "uint256[2]"
        },
        {
          "name": "a_p",
          "type": "uint256[2]"
        },
        {
          "name": "b",
          "type": "uint256[2][2]"
        },
        {
          "name": "b_p",
          "type": "uint256[2]"
        },
        {
          "name": "c",
          "type": "uint256[2]"
        },
        {
          "name": "c_p",
          "type": "uint256[2]"
        },
        {
          "name": "h",
          "type": "uint256[2]"
        },
        {
          "name": "k",
          "type": "uint256[2]"
        },
        {
          "name": "input",
          "type": "uint256[2]"
        }
      ],
      "name": "verifyTx",
      "outputs": [
        {
          "name": "r",
          "type": "bool"
        }
      ],
      "payable": false,
      "stateMutability": "nonpayable",
      "type": "function"
    },
    {
      "inputs": [
        {
          "name": "name",
          "type": "string"
        },
        {
          "name": "symbol",
          "type": "string"
        }
      ],
      "payable": false,
      "stateMutability": "nonpayable",
      "type": "constructor"
    },
    {
      "anonymous": false,
      "inputs": [
        {
          "indexed": false,
          "name": "proofHash",
          "type": "bytes32"
        },
        {
          "indexed": false,
          "name": "submitterAddress",
          "type": "address"
        }
      ],
      "name": "SolutionAdded",
      "type": "event"
    },
    {
      "anonymous": false,
      "inputs": [
        {
          "indexed": false,
          "name": "s",
          "type": "string"
        }
      ],
      "name": "Verified",
      "type": "event"
    },
    {
      "anonymous": false,
      "inputs": [
        {
          "indexed": true,
          "name": "from",
          "type": "address"
        },
        {
          "indexed": true,
          "name": "to",
          "type": "address"
        },
        {
          "indexed": true,
          "name": "tokenId",
          "type": "uint256"
        }
      ],
      "name": "Transfer",
      "type": "event"
    },
    {
      "anonymous": false,
      "inputs": [
        {
          "indexed": true,
          "name": "owner",
          "type": "address"
        },
        {
          "indexed": true,
          "name": "approved",
          "type": "address"
        },
        {
          "indexed": true,
          "name": "tokenId",
          "type": "uint256"
        }
      ],
      "name": "Approval",
      "type": "event"
    },
    {
      "anonymous": false,
      "inputs": [
        {
          "indexed": true,
          "name": "owner",
          "type": "address"
        },
        {
          "indexed": true,
          "name": "operator",
          "type": "address"
        },
        {
          "indexed": false,
          "name": "approved",
          "type": "bool"
        }
      ],
      "name": "ApprovalForAll",
      "type": "event"
    },
    {
      "anonymous": false,
      "inputs": [
        {
          "indexed": false,
          "name": "_invoker",
          "type": "address"
        }
      ],
      "name": "Paused",
      "type": "event"
    },
    {
      "anonymous": false,
      "inputs": [
        {
          "indexed": false,
          "name": "_invoker",
          "type": "address"
        }
      ],
      "name": "Unpaused",
      "type": "event"
    },
    {
      "anonymous": false,
      "inputs": [
        {
          "indexed": false,
          "name": "oldOwner",
          "type": "address"
        },
        {
          "indexed": false,
          "name": "newOwner",
          "type": "address"
        }
      ],
      "name": "OwnershipTransferred",
      "type": "event"
    },
    {
      "constant": false,
      "inputs": [
        {
          "name": "a",
          "type": "uint256[2]"
        },
        {
          "name": "a_p",
          "type": "uint256[2]"
        },
        {
          "name": "b",
          "type": "uint256[2][2]"
        },
        {
          "name": "b_p",
          "type": "uint256[2]"
        },
        {
          "name": "c",
          "type": "uint256[2]"
        },
        {
          "name": "c_p",
          "type": "uint256[2]"
        },
        {
          "name": "h",
          "type": "uint256[2]"
        },
        {
          "name": "k",
          "type": "uint256[2]"
        },
        {
          "name": "input",
          "type": "uint256[2]"
        }
      ],
      "name": "addSolution",
      "outputs": [],
      "payable": false,
      "stateMutability": "nonpayable",
      "type": "function"
    },
    {
      "constant": false,
      "inputs": [
        {
          "name": "to",
          "type": "address"
        },
        {
          "name": "tokenId",
          "type": "uint256"
        }
      ],
      "name": "mint",
      "outputs": [],
      "payable": false,
      "stateMutability": "nonpayable",
      "type": "function"
    }
  ],
  "bytecode": "0x60806040523480156200001157600080fd5b5060405162005af338038062005af3833981018060405260408110156200003757600080fd5b8101908080516401000000008111156200005057600080fd5b828101905060208101848111156200006757600080fd5b81518560018202830111640100000000821117156200008557600080fd5b50509291906020018051640100000000811115620000a257600080fd5b82810190506020810184811115620000b957600080fd5b8151856001820283011164010000000082111715620000d757600080fd5b50509291905050508181606060405190810160405280603f815260200162005ab4603f9139336000806101000a81548173ffffffffffffffffffffffffffffffffffffffff021916908373ffffffffffffffffffffffffffffffffffffffff1602179055507f8be0079c531659141344cd1fd0a4f28419497f9722a3daafe3b4186f6b6457e0600033604051808373ffffffffffffffffffffffffffffffffffffffff1673ffffffffffffffffffffffffffffffffffffffff1681526020018273ffffffffffffffffffffffffffffffffffffffff1673ffffffffffffffffffffffffffffffffffffffff1681526020019250505060405180910390a160008060146101000a81548160ff0219169083151502179055506200022b6301ffc9a77c01000000000000000000000000000000000000000000000000000000000262000338640100000000026401000000009004565b620002686380ac58cd7c01000000000000000000000000000000000000000000000000000000000262000338640100000000026401000000009004565b620002a563780e9d637c01000000000000000000000000000000000000000000000000000000000262000338640100000000026401000000009004565b82600f9080519060200190620002bd929190620003f6565b508160109080519060200190620002d6929190620003f6565b508060119080519060200190620002ef929190620003f6565b506200032d635b5e139f7c01000000000000000000000000000000000000000000000000000000000262000338640100000000026401000000009004565b5050505050620004a5565b63ffffffff7c010000000000000000000000000000000000000000000000000000000002817bffffffffffffffffffffffffffffffffffffffffffffffffffffffff1916141515156200038a57600080fd5b6001806000837bffffffffffffffffffffffffffffffffffffffffffffffffffffffff19167bffffffffffffffffffffffffffffffffffffffffffffffffffffffff1916815260200190815260200160002060006101000a81548160ff02191690831515021790555050565b828054600181600116156101000203166002900490600052602060002090601f016020900481019282601f106200043957805160ff19168380011785556200046a565b828001600101855582156200046a579182015b82811115620004695782518255916020019190600101906200044c565b5b5090506200047991906200047d565b5090565b620004a291905b808211156200049e57600081600090555060010162000484565b5090565b90565b6155ff80620004b56000396000f3fe608060405234801561001057600080fd5b50600436106101c6576000357c0100000000000000000000000000000000000000000000000000000000900480635a50ec5111610116578063a22cb465116100b4578063d547cfb71161008e578063d547cfb714610eca578063e985e9c514610f4d578063f2fde38b14610fc9578063fe01ff621461100d576101c6565b8063a22cb46514610cce578063b88d4fde14610d1e578063c87b56dd14610e23576101c6565b8063893d20e8116100f0578063893d20e814610b185780639201de5514610b6257806394e8767d14610c0957806395d89b4114610c4b576101c6565b80635a50ec51146107ac5780636352211e14610a5257806370a0823114610ac0576101c6565b806323b872dd1161018357806338bbfa501161015d57806338bbfa501461055257806340c10f19146106ae57806342842e0e146106fc5780634f6ccce71461076a576101c6565b806323b872dd146103bd57806327dc297e1461042b5780632f745c59146104f0576101c6565b806301ffc9a7146101cb57806306fdde0314610230578063081812fc146102b3578063095ea7b31461032157806316c38b3c1461036f57806318160ddd1461039f575b600080fd5b610216600480360360208110156101e157600080fd5b8101908080357bffffffffffffffffffffffffffffffffffffffffffffffffffffffff191690602001909291905050506112cb565b604051808215151515815260200191505060405180910390f35b610238611333565b6040518080602001828103825283818151815260200191508051906020019080838360005b8381101561027857808201518184015260208101905061025d565b50505050905090810190601f1680156102a55780820380516001836020036101000a031916815260200191505b509250505060405180910390f35b6102df600480360360208110156102c957600080fd5b81019080803590602001909291905050506113d5565b604051808273ffffffffffffffffffffffffffffffffffffffff1673ffffffffffffffffffffffffffffffffffffffff16815260200191505060405180910390f35b61036d6004803603604081101561033757600080fd5b81019080803573ffffffffffffffffffffffffffffffffffffffff1690602001909291908035906020019092919050505061148f565b005b61039d6004803603602081101561038557600080fd5b81019080803515159060200190929190505050611673565b005b6103a7611737565b6040518082815260200191505060405180910390f35b610429600480360360608110156103d357600080fd5b81019080803573ffffffffffffffffffffffffffffffffffffffff169060200190929190803573ffffffffffffffffffffffffffffffffffffffff16906020019092919080359060200190929190505050611744565b005b6104ee6004803603604081101561044157600080fd5b81019080803590602001909291908035906020019064010000000081111561046857600080fd5b82018360208201111561047a57600080fd5b8035906020019184600183028401116401000000008311171561049c57600080fd5b91908080601f016020809104026020016040519081016040528093929190818152602001838380828437600081840152601f19601f8201169050808301925050505050505091929192905050506117d2565b005b61053c6004803603604081101561050657600080fd5b81019080803573ffffffffffffffffffffffffffffffffffffffff16906020019092919080359060200190929190505050611815565b6040518082815260200191505060405180910390f35b6106ac6004803603606081101561056857600080fd5b81019080803590602001909291908035906020019064010000000081111561058f57600080fd5b8201836020820111156105a157600080fd5b803590602001918460018302840111640100000000831117156105c357600080fd5b91908080601f016020809104026020016040519081016040528093929190818152602001838380828437600081840152601f19601f8201169050808301925050505050505091929192908035906020019064010000000081111561062657600080fd5b82018360208201111561063857600080fd5b8035906020019184600183028401116401000000008311171561065a57600080fd5b91908080601f016020809104026020016040519081016040528093929190818152602001838380828437600081840152601f19601f8201169050808301925050505050505091929192905050506118d8565b005b6106fa600480360360408110156106c457600080fd5b81019080803573ffffffffffffffffffffffffffffffffffffffff169060200190929190803590602001909291905050506118dd565b005b6107686004803603606081101561071257600080fd5b81019080803573ffffffffffffffffffffffffffffffffffffffff169060200190929190803573ffffffffffffffffffffffffffffffffffffffff16906020019092919080359060200190929190505050611b02565b005b6107966004803603602081101561078057600080fd5b8101908080359060200190929190505050611b23565b6040518082815260200191505060405180910390f35b610a5060048036036102808110156107c357600080fd5b8101908080604001906002806020026040519081016040528092919082600260200280828437600081840152601f19601f820116905080830192505050505050919291929080604001906002806020026040519081016040528092919082600260200280828437600081840152601f19601f82011690508083019250505050505091929192908060800190600280602002604051908101604052809291906000905b828210156108b9578382604002016002806020026040519081016040528092919082600260200280828437600081840152601f19601f82011690508083019250505050505081526020019060010190610865565b50505050919291929080604001906002806020026040519081016040528092919082600260200280828437600081840152601f19601f820116905080830192505050505050919291929080604001906002806020026040519081016040528092919082600260200280828437600081840152601f19601f820116905080830192505050505050919291929080604001906002806020026040519081016040528092919082600260200280828437600081840152601f19601f820116905080830192505050505050919291929080604001906002806020026040519081016040528092919082600260200280828437600081840152601f19601f820116905080830192505050505050919291929080604001906002806020026040519081016040528092919082600260200280828437600081840152601f19601f820116905080830192505050505050919291929080604001906002806020026040519081016040528092919082600260200280828437600081840152601f19601f8201169050808301925050505050509192919290505050611bc4565b005b610a7e60048036036020811015610a6857600080fd5b8101908080359060200190929190505050611fee565b604051808273ffffffffffffffffffffffffffffffffffffffff1673ffffffffffffffffffffffffffffffffffffffff16815260200191505060405180910390f35b610b0260048036036020811015610ad657600080fd5b81019080803573ffffffffffffffffffffffffffffffffffffffff16906020019092919050505061202b565b6040518082815260200191505060405180910390f35b610b2061207b565b604051808273ffffffffffffffffffffffffffffffffffffffff1673ffffffffffffffffffffffffffffffffffffffff16815260200191505060405180910390f35b610b8e60048036036020811015610b7857600080fd5b81019080803590602001909291905050506120a4565b6040518080602001828103825283818151815260200191508051906020019080838360005b83811015610bce578082015181840152602081019050610bb3565b50505050905090810190601f168015610bfb5780820380516001836020036101000a031916815260200191505b509250505060405180910390f35b610c3560048036036020811015610c1f57600080fd5b81019080803590602001909291905050506121a7565b6040518082815260200191505060405180910390f35b610c53612250565b6040518080602001828103825283818151815260200191508051906020019080838360005b83811015610c93578082015181840152602081019050610c78565b50505050905090810190601f168015610cc05780820380516001836020036101000a031916815260200191505b509250505060405180910390f35b610d1c60048036036040811015610ce457600080fd5b81019080803573ffffffffffffffffffffffffffffffffffffffff1690602001909291908035151590602001909291905050506122f2565b005b610e2160048036036080811015610d3457600080fd5b81019080803573ffffffffffffffffffffffffffffffffffffffff169060200190929190803573ffffffffffffffffffffffffffffffffffffffff1690602001909291908035906020019092919080359060200190640100000000811115610d9b57600080fd5b820183602082011115610dad57600080fd5b80359060200191846001830284011164010000000083111715610dcf57600080fd5b91908080601f016020809104026020016040519081016040528093929190818152602001838380828437600081840152601f19601f82011690508083019250505050505050919291929050505061247a565b005b610e4f60048036036020811015610e3957600080fd5b810190808035906020019092919050505061250b565b6040518080602001828103825283818151815260200191508051906020019080838360005b83811015610e8f578082015181840152602081019050610e74565b50505050905090810190601f168015610ebc5780820380516001836020036101000a031916815260200191505b509250505060405180910390f35b610ed261263d565b6040518080602001828103825283818151815260200191508051906020019080838360005b83811015610f12578082015181840152602081019050610ef7565b50505050905090810190601f168015610f3f5780820380516001836020036101000a031916815260200191505b509250505060405180910390f35b610faf60048036036040811015610f6357600080fd5b81019080803573ffffffffffffffffffffffffffffffffffffffff169060200190929190803573ffffffffffffffffffffffffffffffffffffffff1690602001909291905050506126df565b604051808215151515815260200191505060405180910390f35b61100b60048036036020811015610fdf57600080fd5b81019080803573ffffffffffffffffffffffffffffffffffffffff169060200190929190505050612773565b005b6112b1600480360361028081101561102457600080fd5b8101908080604001906002806020026040519081016040528092919082600260200280828437600081840152601f19601f820116905080830192505050505050919291929080604001906002806020026040519081016040528092919082600260200280828437600081840152601f19601f82011690508083019250505050505091929192908060800190600280602002604051908101604052809291906000905b8282101561111a578382604002016002806020026040519081016040528092919082600260200280828437600081840152601f19601f820116905080830192505050505050815260200190600101906110c6565b50505050919291929080604001906002806020026040519081016040528092919082600260200280828437600081840152601f19601f820116905080830192505050505050919291929080604001906002806020026040519081016040528092919082600260200280828437600081840152601f19601f820116905080830192505050505050919291929080604001906002806020026040519081016040528092919082600260200280828437600081840152601f19601f820116905080830192505050505050919291929080604001906002806020026040519081016040528092919082600260200280828437600081840152601f19601f820116905080830192505050505050919291929080604001906002806020026040519081016040528092919082600260200280828437600081840152601f19601f820116905080830192505050505050919291929080604001906002806020026040519081016040528092919082600260200280828437600081840152601f19601f8201169050808301925050505050509192919290505050612984565b604051808215151515815260200191505060405180910390f35b600060016000837bffffffffffffffffffffffffffffffffffffffffffffffffffffffff19167bffffffffffffffffffffffffffffffffffffffffffffffffffffffff1916815260200190815260200160002060009054906101000a900460ff169050919050565b6060600f8054600181600116156101000203166002900480601f0160208091040260200160405190810160405280929190818152602001828054600181600116156101000203166002900480156113cb5780601f106113a0576101008083540402835291602001916113cb565b820191906000526020600020905b8154815290600101906020018083116113ae57829003601f168201915b5050505050905090565b60006113e082612d3d565b1515611454576040517f08c379a00000000000000000000000000000000000000000000000000000000081526004018080602001828103825260148152602001807f546f6b656e20646f6573206e6f7420657869737400000000000000000000000081525060200191505060405180910390fd5b6003600083815260200190815260200160002060009054906101000a900473ffffffffffffffffffffffffffffffffffffffff169050919050565b600061149a82611fee565b90508073ffffffffffffffffffffffffffffffffffffffff168373ffffffffffffffffffffffffffffffffffffffff1614151515611523576040517f08c379a000000000000000000000000000000000000000000000000000000000815260040180806020018281038252603e815260200180615565603e913960400191505060405180910390fd5b8073ffffffffffffffffffffffffffffffffffffffff163373ffffffffffffffffffffffffffffffffffffffff16148061156a57506001151561156682336126df565b1515145b15156115c1576040517f08c379a00000000000000000000000000000000000000000000000000000000081526004018080602001828103825260318152602001806155a36031913960400191505060405180910390fd5b826003600084815260200190815260200160002060006101000a81548173ffffffffffffffffffffffffffffffffffffffff021916908373ffffffffffffffffffffffffffffffffffffffff160217905550818373ffffffffffffffffffffffffffffffffffffffff168273ffffffffffffffffffffffffffffffffffffffff167f8c5be1e5ebec7d5bd14f71427d1e84f3dd0314c0f7b2291e5b200ac8c7c3b92560405160405180910390a4505050565b6000809054906101000a900473ffffffffffffffffffffffffffffffffffffffff1673ffffffffffffffffffffffffffffffffffffffff163373ffffffffffffffffffffffffffffffffffffffff1614151561171a576040517f08c379a000000000000000000000000000000000000000000000000000000000815260040180806020018281038252602d815260200180615430602d913960400191505060405180910390fd5b80600060146101000a81548160ff02191690831515021790555050565b6000600880549050905090565b61174e3382612daf565b15156117c2576040517f08c379a000000000000000000000000000000000000000000000000000000000815260040180806020018281038252601b8152602001807f4e6f7420617070726f766564206f72206e6f74206f776e6572cb9a000000000081525060200191505060405180910390fd5b6117cd838383612e44565b505050565b611811828260006040519080825280601f01601f19166020018201604052801561180b5781602001600182028038833980820191505090505b506118d8565b5050565b60006118208361202b565b82101515611879576040517f08c379a00000000000000000000000000000000000000000000000000000000081526004018080602001828103825260238152602001806154cb6023913960400191505060405180910390fd5b600660008473ffffffffffffffffffffffffffffffffffffffff1673ffffffffffffffffffffffffffffffffffffffff168152602001908152602001600020828154811015156118c557fe5b9060005260206000200154905092915050565b505050565b6118e56150fe565b601460008473ffffffffffffffffffffffffffffffffffffffff1673ffffffffffffffffffffffffffffffffffffffff16815260200190815260200160002060606040519081016040529081600082015481526020016001820160009054906101000a900473ffffffffffffffffffffffffffffffffffffffff1673ffffffffffffffffffffffffffffffffffffffff1673ffffffffffffffffffffffffffffffffffffffff1681526020016001820160149054906101000a900460ff161515151581525050905060006001028160000151111515611a2c576040517f08c379a00000000000000000000000000000000000000000000000000000000081526004018080602001828103825260178152602001807f536f6c7574696f6e20646f6573206e6f7420657869737400000000000000000081525060200191505060405180910390fd5b6000151581604001511515141515611a8f576040517f08c379a00000000000000000000000000000000000000000000000000000000081526004018080602001828103825260308152602001806154006030913960400191505060405180910390fd5b611a998383612e68565b6001601460008573ffffffffffffffffffffffffffffffffffffffff1673ffffffffffffffffffffffffffffffffffffffff16815260200190815260200160002060010160146101000a81548160ff021916908315150217905550611afd82612e89565b505050565b611b1e838383602060405190810160405280600081525061247a565b505050565b6000611b2d611737565b82101515611ba3576040517f08c379a000000000000000000000000000000000000000000000000000000000815260040180806020018281038252601f8152602001807f546f74616c20737570706c79206973206c657373207468616e20696e6465780081525060200191505060405180910390fd5b600882815481101515611bb257fe5b90600052602060002001549050919050565b6000611bd78a8a8a8a8a8a8a8a8a612feb565b9050600073ffffffffffffffffffffffffffffffffffffffff166015600083815260200190815260200160002060010160009054906101000a900473ffffffffffffffffffffffffffffffffffffffff1673ffffffffffffffffffffffffffffffffffffffff16141515611cb3576040517f08c379a00000000000000000000000000000000000000000000000000000000081526004018080602001828103825260178152602001807f536f6c7574696f6e2065786973747320616c726561647900000000000000000081525060200191505060405180910390fd5b6000611cc68b8b8b8b8b8b8b8b8b612984565b905060011515811515141515611d44576040517f08c379a00000000000000000000000000000000000000000000000000000000081526004018080602001828103825260158152602001807f536f6c7574696f6e206973206e6f742076616c6964000000000000000000000081525060200191505060405180910390fd5b611d4c6150fe565b606060405190810160405280611d698e8e8e8e8e8e8e8e8e612feb565b81526020013373ffffffffffffffffffffffffffffffffffffffff168152602001600015158152509050601381908060018154018082558091505090600182039060005260206000209060020201600090919290919091506000820151816000015560208201518160010160006101000a81548173ffffffffffffffffffffffffffffffffffffffff021916908373ffffffffffffffffffffffffffffffffffffffff16021790555060408201518160010160146101000a81548160ff02191690831515021790555050505080601460003373ffffffffffffffffffffffffffffffffffffffff1673ffffffffffffffffffffffffffffffffffffffff1681526020019081526020016000206000820151816000015560208201518160010160006101000a81548173ffffffffffffffffffffffffffffffffffffffff021916908373ffffffffffffffffffffffffffffffffffffffff16021790555060408201518160010160146101000a81548160ff0219169083151502179055509050508060156000836000015181526020019081526020016000206000820151816000015560208201518160010160006101000a81548173ffffffffffffffffffffffffffffffffffffffff021916908373ffffffffffffffffffffffffffffffffffffffff16021790555060408201518160010160146101000a81548160ff0219169083151502179055509050507f01d5f9f5a890e5385b4f1d07d3c8c1f739f82bb433ed461d4551b7af3edc63408333604051808381526020018273ffffffffffffffffffffffffffffffffffffffff1673ffffffffffffffffffffffffffffffffffffffff1681526020019250505060405180910390a1505050505050505050505050565b60006002600083815260200190815260200160002060009054906101000a900473ffffffffffffffffffffffffffffffffffffffff169050919050565b6000612074600460008473ffffffffffffffffffffffffffffffffffffffff1673ffffffffffffffffffffffffffffffffffffffff1681526020019081526020016000206131f3565b9050919050565b60008060009054906101000a900473ffffffffffffffffffffffffffffffffffffffff16905090565b60608060206040519080825280601f01601f1916602001820160405280156120db5781602001600182028038833980820191505090505b50905060008090505b602081101561219d5760008160080260020a856001900402600102905060007f010000000000000000000000000000000000000000000000000000000000000002817effffffffffffffffffffffffffffffffffffffffffffffffffffffffffffff191614151561218f5780838381518110151561215e57fe5b9060200101907effffffffffffffffffffffffffffffffffffffffffffffffffffffffffffff1916908160001a9053505b5080806001019150506120e4565b5080915050919050565b6000808214156121d9577f30000000000000000000000000000000000000000000000000000000000000009050612248565b5b60008211156122475761010081600190048115156121f457fe5b0460010290507f01000000000000000000000000000000000000000000000000000000000000006030600a8481151561222957fe5b06010260010281179050600a8281151561223f57fe5b0491506121da565b5b809050919050565b606060108054600181600116156101000203166002900480601f0160208091040260200160405190810160405280929190818152602001828054600181600116156101000203166002900480156122e85780601f106122bd576101008083540402835291602001916122e8565b820191906000526020600020905b8154815290600101906020018083116122cb57829003601f168201915b5050505050905090565b3373ffffffffffffffffffffffffffffffffffffffff168273ffffffffffffffffffffffffffffffffffffffff1614151515612379576040517f08c379a00000000000000000000000000000000000000000000000000000000081526004018080602001828103825260328152602001806155106032913960400191505060405180910390fd5b80600560003373ffffffffffffffffffffffffffffffffffffffff1673ffffffffffffffffffffffffffffffffffffffff16815260200190815260200160002060008473ffffffffffffffffffffffffffffffffffffffff1673ffffffffffffffffffffffffffffffffffffffff16815260200190815260200160002060006101000a81548160ff0219169083151502179055508173ffffffffffffffffffffffffffffffffffffffff163373ffffffffffffffffffffffffffffffffffffffff167f17307eab39ab6107e8899845ad3d59bd9653f200f220920489ca2b5937696c3183604051808215151515815260200191505060405180910390a35050565b612485848484611744565b61249184848484613201565b1515612505576040517f08c379a00000000000000000000000000000000000000000000000000000000081526004018080602001828103825260158152602001807f546f6b656e206973206e6f74207265636569766564000000000000000000000081525060200191505060405180910390fd5b50505050565b606061251682612d3d565b151561258a576040517f08c379a00000000000000000000000000000000000000000000000000000000081526004018080602001828103825260148152602001807f546f6b656e20646f6573206e6f7420657869737400000000000000000000000081525060200191505060405180910390fd5b601260008381526020019081526020016000208054600181600116156101000203166002900480601f0160208091040260200160405190810160405280929190818152602001828054600181600116156101000203166002900480156126315780601f1061260657610100808354040283529160200191612631565b820191906000526020600020905b81548152906001019060200180831161261457829003601f168201915b50505050509050919050565b606060118054600181600116156101000203166002900480601f0160208091040260200160405190810160405280929190818152602001828054600181600116156101000203166002900480156126d55780601f106126aa576101008083540402835291602001916126d5565b820191906000526020600020905b8154815290600101906020018083116126b857829003601f168201915b5050505050905090565b6000600560008473ffffffffffffffffffffffffffffffffffffffff1673ffffffffffffffffffffffffffffffffffffffff16815260200190815260200160002060008373ffffffffffffffffffffffffffffffffffffffff1673ffffffffffffffffffffffffffffffffffffffff16815260200190815260200160002060009054906101000a900460ff16905092915050565b6000809054906101000a900473ffffffffffffffffffffffffffffffffffffffff1673ffffffffffffffffffffffffffffffffffffffff163373ffffffffffffffffffffffffffffffffffffffff1614151561281a576040517f08c379a000000000000000000000000000000000000000000000000000000000815260040180806020018281038252602d815260200180615430602d913960400191505060405180910390fd5b806000151561282882613424565b1515141515612882576040517f08c379a00000000000000000000000000000000000000000000000000000000081526004018080602001828103825260228152602001806154ee6022913960400191505060405180910390fd5b60008060009054906101000a900473ffffffffffffffffffffffffffffffffffffffff169050826000806101000a81548173ffffffffffffffffffffffffffffffffffffffff021916908373ffffffffffffffffffffffffffffffffffffffff1602179055507f8be0079c531659141344cd1fd0a4f28419497f9722a3daafe3b4186f6b6457e08184604051808373ffffffffffffffffffffffffffffffffffffffff1673ffffffffffffffffffffffffffffffffffffffff1681526020018273ffffffffffffffffffffffffffffffffffffffff1673ffffffffffffffffffffffffffffffffffffffff1681526020019250505060405180910390a1505050565b600061298e61513b565b60408051908101604052808c60006002811015156129a857fe5b602002015181526020018c60016002811015156129c157fe5b6020020151815250816000018190525060408051908101604052808b60006002811015156129eb57fe5b602002015181526020018b6001600281101515612a0457fe5b60200201518152508160200181905250604080519081016040528060408051908101604052808c6000600281101515612a3957fe5b60200201516000600281101515612a4c57fe5b602002015181526020018c6000600281101515612a6557fe5b60200201516001600281101515612a7857fe5b6020020151815250815260200160408051908101604052808c6001600281101515612a9f57fe5b60200201516000600281101515612ab257fe5b602002015181526020018c6001600281101515612acb57fe5b60200201516001600281101515612ade57fe5b602002015181525081525081604001819052506040805190810160405280896000600281101515612b0b57fe5b60200201518152602001896001600281101515612b2457fe5b602002015181525081606001819052506040805190810160405280886000600281101515612b4e57fe5b60200201518152602001886001600281101515612b6757fe5b602002015181525081608001819052506040805190810160405280876000600281101515612b9157fe5b60200201518152602001876001600281101515612baa57fe5b60200201518152508160a001819052506040805190810160405280866000600281101515612bd457fe5b60200201518152602001866001600281101515612bed57fe5b60200201518152508160e001819052506040805190810160405280856000600281101515612c1757fe5b60200201518152602001856001600281101515612c3057fe5b60200201518152508160c0018190525060606002604051908082528060200260200182016040528015612c725781602001602082028038833980820191505090505b50905060008090505b6002811015612cc0578481600281101515612c9257fe5b60200201518282815181101515612ca557fe5b90602001906020020181815250508080600101915050612c7b565b506000612ccd8284613437565b1415612d29577f3f3cfdb26fb5f9f1786ab4f1a1f9cd4c0b5e726cbdfc26e495261731aad44e3960405180806020018281038252602281526020018061547e6022913960400191505060405180910390a1600192505050612d30565b6000925050505b9998505050505050505050565b6000806002600084815260200190815260200160002060009054906101000a900473ffffffffffffffffffffffffffffffffffffffff169050600073ffffffffffffffffffffffffffffffffffffffff168173ffffffffffffffffffffffffffffffffffffffff161415915050919050565b600080612dbb83611fee565b90508073ffffffffffffffffffffffffffffffffffffffff168473ffffffffffffffffffffffffffffffffffffffff161480612e2a57508373ffffffffffffffffffffffffffffffffffffffff16612e12846113d5565b73ffffffffffffffffffffffffffffffffffffffff16145b80612e3b5750612e3a81856126df565b5b91505092915050565b612e4f838383613677565b612e59838261399e565b612e638282613b42565b505050565b612e728282613c09565b612e7c8282613b42565b612e8581613e0f565b5050565b60011515612e9682612d3d565b1515141515612f0d576040517f08c379a00000000000000000000000000000000000000000000000000000000081526004018080602001828103825260148152602001807f546f6b656e20646f6573206e6f7420657869737400000000000000000000000081525060200191505060405180910390fd5b612fc160118054600181600116156101000203166002900480601f016020809104026020016040519081016040528092919081815260200182805460018160011615610100020316600290048015612fa65780601f10612f7b57610100808354040283529160200191612fa6565b820191906000526020600020905b815481529060010190602001808311612f8957829003601f168201915b5050505050612fbc612fb7846121a7565b6120a4565b613e5b565b601260008381526020019081526020016000209080519060200190612fe79291906151b1565b5050565b6000808a8a8a8a8a8a8a8a8a604051602001808a600260200280838360005b8381101561302557808201518184015260208101905061300a565b5050505090500189600260200280838360005b83811015613053578082015181840152602081019050613038565b505050509050018860026000925b818410156130a75782846020020151600260200280838360005b8381101561309657808201518184015260208101905061307b565b505050509050019260010192613061565b9250505087600260200280838360005b838110156130d25780820151818401526020810190506130b7565b5050505090500186600260200280838360005b838110156131005780820151818401526020810190506130e5565b5050505090500185600260200280838360005b8381101561312e578082015181840152602081019050613113565b5050505090500184600260200280838360005b8381101561315c578082015181840152602081019050613141565b5050505090500183600260200280838360005b8381101561318a57808201518184015260208101905061316f565b5050505090500182600260200280838360005b838110156131b857808201518184015260208101905061319d565b505050509050019950505050505050505050604051602081830303815290604052805190602001209050809150509998505050505050505050565b600081600001549050919050565b60006132228473ffffffffffffffffffffffffffffffffffffffff16613424565b1515613231576001905061341c565b60008473ffffffffffffffffffffffffffffffffffffffff1663150b7a02338887876040518563ffffffff167c0100000000000000000000000000000000000000000000000000000000028152600401808573ffffffffffffffffffffffffffffffffffffffff1673ffffffffffffffffffffffffffffffffffffffff1681526020018473ffffffffffffffffffffffffffffffffffffffff1673ffffffffffffffffffffffffffffffffffffffff16815260200183815260200180602001828103825283818151815260200191508051906020019080838360005b8381101561332857808201518184015260208101905061330d565b50505050905090810190601f1680156133555780820380516001836020036101000a031916815260200191505b5095505050505050602060405180830381600087803b15801561337757600080fd5b505af115801561338b573d6000803e3d6000fd5b505050506040513d60208110156133a157600080fd5b8101908080519060200190929190505050905063150b7a027c0100000000000000000000000000000000000000000000000000000000027bffffffffffffffffffffffffffffffffffffffffffffffffffffffff1916817bffffffffffffffffffffffffffffffffffffffffffffffffffffffff1916149150505b949350505050565b600080823b905060008111915050919050565b6000613441615231565b613449613ea2565b90508060e0015151600185510114151561346257600080fd5b61346a6152a1565b6040805190810160405280600081526020016000815250905060008090505b85518110156134e9576134da826134d58560e00151600185018151811015156134ae57fe5b9060200190602002015189858151811015156134c657fe5b906020019060200201516144e2565b61457e565b91508080600101915050613489565b50613510818360e00151600081518110151561350157fe5b9060200190602002015161457e565b90506135398460000151836000015161352c876020015161463b565b6135346146d7565b6147a1565b151561354a57600192505050613671565b61357182602001518560400151613564876060015161463b565b61356c6146d7565b6147a1565b151561358257600292505050613671565b6135a98460800151836040015161359c8760a0015161463b565b6135a46146d7565b6147a1565b15156135ba57600392505050613671565b6136068460c0015183606001516135ea6135e5856135e08a600001518b6080015161457e565b61457e565b61463b565b8560a001516135fc876080015161463b565b89604001516148ad565b151561361757600492505050613671565b61365961362882866000015161457e565b856040015161363a8760e0015161463b565b8560c0015161364c896080015161463b565b6136546146d7565b6148ad565b151561366a57600592505050613671565b6000925050505b92915050565b6136813382612daf565b15156136d8576040517f08c379a000000000000000000000000000000000000000000000000000000000815260040180806020018281038252602b8152602001806154a0602b913960400191505060405180910390fd5b600073ffffffffffffffffffffffffffffffffffffffff168273ffffffffffffffffffffffffffffffffffffffff1614151515613760576040517f08c379a00000000000000000000000000000000000000000000000000000000081526004018080602001828103825260238152602001806155426023913960400191505060405180910390fd5b8273ffffffffffffffffffffffffffffffffffffffff1661378082611fee565b73ffffffffffffffffffffffffffffffffffffffff1614151561380b576040517f08c379a000000000000000000000000000000000000000000000000000000000815260040180806020018281038252601f8152602001807f546f6b656e206f776e65722061646472657373206973206e6f742066726f6d0081525060200191505060405180910390fd5b613852600460008573ffffffffffffffffffffffffffffffffffffffff1673ffffffffffffffffffffffffffffffffffffffff1681526020019081526020016000206149f5565b60006002600083815260200190815260200160002060006101000a81548173ffffffffffffffffffffffffffffffffffffffff021916908373ffffffffffffffffffffffffffffffffffffffff160217905550816002600083815260200190815260200160002060006101000a81548173ffffffffffffffffffffffffffffffffffffffff021916908373ffffffffffffffffffffffffffffffffffffffff16021790555061393e600460008473ffffffffffffffffffffffffffffffffffffffff1673ffffffffffffffffffffffffffffffffffffffff168152602001908152602001600020614a18565b808273ffffffffffffffffffffffffffffffffffffffff168473ffffffffffffffffffffffffffffffffffffffff167fddf252ad1be2c89b69c2b068fc378daa952ba7f163c4a11628f55a4df523b3ef60405160405180910390a4505050565b60006139f66001600660008673ffffffffffffffffffffffffffffffffffffffff1673ffffffffffffffffffffffffffffffffffffffff16815260200190815260200160002080549050614a2e90919063ffffffff16565b90506000600760008481526020019081526020016000205490508181141515613ae9576000600660008673ffffffffffffffffffffffffffffffffffffffff1673ffffffffffffffffffffffffffffffffffffffff16815260200190815260200160002083815481101515613a6757fe5b9060005260206000200154905080600660008773ffffffffffffffffffffffffffffffffffffffff1673ffffffffffffffffffffffffffffffffffffffff16815260200190815260200160002083815481101515613ac157fe5b9060005260206000200181905550816007600083815260200190815260200160002081905550505b600660008573ffffffffffffffffffffffffffffffffffffffff1673ffffffffffffffffffffffffffffffffffffffff168152602001908152602001600020805480919060019003613b3b91906152bb565b5050505050565b600660008373ffffffffffffffffffffffffffffffffffffffff1673ffffffffffffffffffffffffffffffffffffffff168152602001908152602001600020805490506007600083815260200190815260200160002081905550600660008373ffffffffffffffffffffffffffffffffffffffff1673ffffffffffffffffffffffffffffffffffffffff1681526020019081526020016000208190806001815401808255809150509060018203906000526020600020016000909192909190915055505050565b60011515613c1682612d3d565b151514151515613c71576040517f08c379a000000000000000000000000000000000000000000000000000000000815260040180806020018281038252602181526020018061545d6021913960400191505060405180910390fd5b600073ffffffffffffffffffffffffffffffffffffffff168273ffffffffffffffffffffffffffffffffffffffff1614151515613d16576040517f08c379a00000000000000000000000000000000000000000000000000000000081526004018080602001828103825260198152602001807f41646472657373207368616c6c206e6f74206265206e756c6c0000000000000081525060200191505060405180910390fd5b816002600083815260200190815260200160002060006101000a81548173ffffffffffffffffffffffffffffffffffffffff021916908373ffffffffffffffffffffffffffffffffffffffff160217905550613daf600460008473ffffffffffffffffffffffffffffffffffffffff1673ffffffffffffffffffffffffffffffffffffffff168152602001908152602001600020614a18565b808273ffffffffffffffffffffffffffffffffffffffff16600073ffffffffffffffffffffffffffffffffffffffff167fddf252ad1be2c89b69c2b068fc378daa952ba7f163c4a11628f55a4df523b3ef60405160405180910390a45050565b6008805490506009600083815260200190815260200160002081905550600881908060018154018082558091505090600182039060005260206000200160009091929091909150555050565b6060613e9a8383602060405190810160405280600081525060206040519081016040528060008152506020604051908101604052806000815250614a50565b905092915050565b613eaa615231565b604080519081016040528060408051908101604052807f04adf37b6b67290977312fe2ba1217ba36f2a6ddd91e9c4399ce844c4cdbe5b481526020017f2d264b91ab42702d72ffef9661e21de9e2e29f6cc2d33ab8d2a303ac63d8e381815250815260200160408051908101604052807f19516cb93d29538f69cad341f32b4e6120ca4d3a699a4d1b55f0ede6ab61752a81526020017f11c4ece7b899025b6199e5c0d00628330720a89901e62d7972cf6b1fa565e440815250815250816000018190525060408051908101604052807f24cd6295e7fb9d5206ceeae1bb1679a0505283b3224a226aa10249f6fdce0e1481526020017f1e4088567ffc729c9e7053470ea2b4e18ba3ef1a05651d58c4c924cc868fefa08152508160200181905250604080519081016040528060408051908101604052807f26f27c01686aa9da30a504d08b6d79bb88bfa497b70cd62fc74f8b1455bfdcca81526020017f15128a9f2f4cc10601a96d9c14f6c7fd08f893dd13a6f0e8dd59d04a6c95aa86815250815260200160408051908101604052807f0f5474aecc799fcef84601a4d89bdb5d9305acdb16c58b4470af7700154f4c2c81526020017f1ef691dd3a44b27eddbd7140a511bae9c59980ca7bfc49fba2645c6e76ace7a88152508152508160400181905250604080519081016040528060408051908101604052807f209202f0ef58e4e8692809915ded3c9a321cd709b946b7160b9722af3a07903381526020017f2255b6c9b2d88585fda3c9aece1659686ffd407ae641ef13d2c467eba9002dee815250815260200160408051908101604052807f219a876b793eebdd00665d79de2c2c3eda3434344598465d967c04808279bd2881526020017f2c1b60a4733a5b059c39985b5f29a3e0d301cb35a3f665a8232b1f8d671d5ea2815250815250816060018190525060408051908101604052807f1c58f98087a5a41bcc71beadb0d19e04583e219e44719997eb6b23d697ca9e3e81526020017f1aff44ad74bb41a1f6bce7e8ba7867d7a920b2f1e41c14e993908372d38b0b378152508160800181905250604080519081016040528060408051908101604052807f0af67b069afafc9aa0b8bc75646def3abbcefaae1e8480f1a79cf41b4b1a722c81526020017f1a42b899d2755574f8553ca66d69ecde059679d2fdc91fc46c4c2bb02adfbfdb815250815260200160408051908101604052807f043f45ad22a82e91fa40f19723f85b77fd570f5c0275eedde582d1f108bb93f181526020017f103cbf9caa3148d7e8dd47f01e56c468042ac053a43e900441301b94f50b4b0f8152508152508160a00181905250604080519081016040528060408051908101604052807f1b5713b904d4b4b104706a0b1a092afecf8f971d406ba6480a931744848635ee81526020017f1c2a79891282beee66fd22762c346946095357ba377ea01398a44f8c270afdfe815250815260200160408051908101604052807f138c441bf075914c9b513ab43263b41978ceb2c18cf23b3342f53cff77450f8881526020017f24b69835c7685f6a3f883108c9d8be6cf3214964b47ff001c3c4c2ab39542a3b8152508152508160c00181905250600360405190808252806020026020018201604052801561437857816020015b6143656152e7565b81526020019060019003908161435d5790505b508160e0018190525060408051908101604052807f17c2077ed8959cf3a00467f368dcd4d43a0af3d1534f63f86d96b0db269bb8e181526020017f121efe39bbda64b0f17a65429ddbd6356716250b5e74672e8dc730a5c5406fbf8152508160e0015160008151811015156143e957fe5b9060200190602002018190525060408051908101604052807f27890acad1dc05b3503f84056ab89b62d27bb0360bc05cd937aed5cc8da18f8b81526020017e1a049257bc942d9db8bf4670481811f30e1fe284ed6d41dd6f1db3ff6dbcc48152508160e00151600181518110151561445d57fe5b9060200190602002018190525060408051908101604052807f28c6dc8564f9bc02f818b517d4297f4a19af1dc014b254ba6789f1961b61621981526020017f09dca316c64c608264baaa03020143ed914f1740f365f79f891407d316f87d948152508160e0015160028151811015156144d257fe5b9060200190602002018190525090565b6144ea6152a1565b6144f2615301565b836000015181600060038110151561450657fe5b602002018181525050836020015181600160038110151561452357fe5b6020020181815250508281600260038110151561453c57fe5b6020020181815250506000606083608084600060076107d05a03f19050806000811461456757614569565bfe5b5080151561457657600080fd5b505092915050565b6145866152a1565b61458e615324565b83600001518160006004811015156145a257fe5b60200201818152505083602001518160016004811015156145bf57fe5b60200201818152505082600001518160026004811015156145dc57fe5b60200201818152505082602001518160036004811015156145f957fe5b602002018181525050600060608360c084600060066107d05a03f19050806000811461462457614626565bfe5b5080151561463357600080fd5b505092915050565b6146436152a1565b60007f30644e72e131a029b85045b68181585d97816a916871ca8d3c208c16d87cfd47905060008360000151148015614680575060008360200151145b156146a45760408051908101604052806000815260200160008152509150506146d2565b6040805190810160405280846000015181526020018285602001518115156146c857fe5b0683038152509150505b919050565b6146df615347565b604080519081016040528060408051908101604052807f198e9393920d483a7260bfb731fb5d25f1aa493335a9e71297e485b7aef312c281526020017f1800deef121f1e76426a00665e5c4479674322d4f75edadd46debd5cd992f6ed815250815260200160408051908101604052807f090689d0585ff075ec9e99ad690c3395bc4b313370b38ef355acdadcd122975b81526020017f12c85ea5db8c6deb4aab71808dcb408fe3d1e7690c43d37b4ce6cc0166fa7daa815250815250905090565b6000606060026040519080825280602002602001820160405280156147e057816020015b6147cd6152e7565b8152602001906001900390816147c55790505b5090506060600260405190808252806020026020018201604052801561482057816020015b61480d61536e565b8152602001906001900390816148055790505b5090508682600081518110151561483357fe5b906020019060200201819052508482600181518110151561485057fe5b906020019060200201819052508581600081518110151561486d57fe5b906020019060200201819052508381600181518110151561488a57fe5b906020019060200201819052506148a18282614e6b565b92505050949350505050565b6000606060036040519080825280602002602001820160405280156148ec57816020015b6148d96152e7565b8152602001906001900390816148d15790505b5090506060600360405190808252806020026020018201604052801561492c57816020015b61491961536e565b8152602001906001900390816149115790505b5090508882600081518110151561493f57fe5b906020019060200201819052508682600181518110151561495c57fe5b906020019060200201819052508482600281518110151561497957fe5b906020019060200201819052508781600081518110151561499657fe5b90602001906020020181905250858160018151811015156149b357fe5b90602001906020020181905250838160028151811015156149d057fe5b906020019060200201819052506149e78282614e6b565b925050509695505050505050565b614a0d60018260000154614a2e90919063ffffffff16565b816000018190555050565b6001816000016000828254019250508190555050565b6000828211151515614a3f57600080fd5b600082840390508091505092915050565b6060808690506060869050606086905060608690506060869050606081518351855187518951010101016040519080825280601f01601f191660200182016040528015614aac5781602001600182028038833980820191505090505b509050606081905060008090506000809050600090505b8851811015614b76578881815181101515614ada57fe5b9060200101517f010000000000000000000000000000000000000000000000000000000000000090047f0100000000000000000000000000000000000000000000000000000000000000028383806001019450815181101515614b3957fe5b9060200101907effffffffffffffffffffffffffffffffffffffffffffffffffffffffffffff1916908160001a9053508080600101915050614ac3565b600090505b8751811015614c2e578781815181101515614b9257fe5b9060200101517f010000000000000000000000000000000000000000000000000000000000000090047f0100000000000000000000000000000000000000000000000000000000000000028383806001019450815181101515614bf157fe5b9060200101907effffffffffffffffffffffffffffffffffffffffffffffffffffffffffffff1916908160001a9053508080600101915050614b7b565b600090505b8651811015614ce6578681815181101515614c4a57fe5b9060200101517f010000000000000000000000000000000000000000000000000000000000000090047f0100000000000000000000000000000000000000000000000000000000000000028383806001019450815181101515614ca957fe5b9060200101907effffffffffffffffffffffffffffffffffffffffffffffffffffffffffffff1916908160001a9053508080600101915050614c33565b600090505b8551811015614d9e578581815181101515614d0257fe5b9060200101517f010000000000000000000000000000000000000000000000000000000000000090047f0100000000000000000000000000000000000000000000000000000000000000028383806001019450815181101515614d6157fe5b9060200101907effffffffffffffffffffffffffffffffffffffffffffffffffffffffffffff1916908160001a9053508080600101915050614ceb565b600090505b8451811015614e56578481815181101515614dba57fe5b9060200101517f010000000000000000000000000000000000000000000000000000000000000090047f0100000000000000000000000000000000000000000000000000000000000000028383806001019450815181101515614e1957fe5b9060200101907effffffffffffffffffffffffffffffffffffffffffffffffffffffffffffff1916908160001a9053508080600101915050614da3565b82995050505050505050505095945050505050565b600081518351141515614e7d57600080fd5b6000835190506000600682029050606081604051908082528060200260200182016040528015614ebc5781602001602082028038833980820191505090505b50905060008090505b8381101561509a578681815181101515614edb57fe5b90602001906020020151600001518260006006840201815181101515614efd57fe5b90602001906020020181815250508681815181101515614f1957fe5b90602001906020020151602001518260016006840201815181101515614f3b57fe5b90602001906020020181815250508581815181101515614f5757fe5b90602001906020020151600001516000600281101515614f7357fe5b60200201518260026006840201815181101515614f8c57fe5b90602001906020020181815250508581815181101515614fa857fe5b90602001906020020151600001516001600281101515614fc457fe5b60200201518260036006840201815181101515614fdd57fe5b90602001906020020181815250508581815181101515614ff957fe5b9060200190602002015160200151600060028110151561501557fe5b6020020151826004600684020181518110151561502e57fe5b9060200190602002018181525050858181518110151561504a57fe5b9060200190602002015160200151600160028110151561506657fe5b6020020151826005600684020181518110151561507f57fe5b90602001906020020181815250508080600101915050614ec5565b506150a3615395565b60006020826020860260208601600060086107d05a03f1905080600081146150ca576150cc565bfe5b508015156150d957600080fd5b60008260006001811015156150ea57fe5b602002015114159550505050505092915050565b60606040519081016040528060008019168152602001600073ffffffffffffffffffffffffffffffffffffffff1681526020016000151581525090565b610240604051908101604052806151506152e7565b815260200161515d6152e7565b815260200161516a61536e565b81526020016151776152e7565b81526020016151846152e7565b81526020016151916152e7565b815260200161519e6152e7565b81526020016151ab6152e7565b81525090565b828054600181600116156101000203166002900490600052602060002090601f016020900481019282601f106151f257805160ff1916838001178555615220565b82800160010185558215615220579182015b8281111561521f578251825591602001919060010190615204565b5b50905061522d91906153b8565b5090565b6103206040519081016040528061524661536e565b81526020016152536152e7565b815260200161526061536e565b815260200161526d61536e565b815260200161527a6152e7565b815260200161528761536e565b815260200161529461536e565b8152602001606081525090565b604080519081016040528060008152602001600081525090565b8154818355818111156152e2578183600052602060002091820191016152e191906153b8565b5b505050565b604080519081016040528060008152602001600081525090565b606060405190810160405280600390602082028038833980820191505090505090565b608060405190810160405280600490602082028038833980820191505090505090565b60806040519081016040528061535b6153dd565b81526020016153686153dd565b81525090565b6080604051908101604052806153826153dd565b815260200161538f6153dd565b81525090565b602060405190810160405280600190602082028038833980820191505090505090565b6153da91905b808211156153d65760008160009055506001016153be565b5090565b90565b604080519081016040528060029060208202803883398082019150509050509056fe536f6c7574696f6e20686164206265656e207573656420666f7220746f6b656e206d696e74696e6720616c72656164794f6e6c7920636f6e7472616374206f776e65722063616e20696e766f6b652074686973206f7065726174696f6e546f6b656e2077697468207468697320696420616c7265616479206578697374735472616e73616374696f6e207375636365737366756c6c792076657269666965642e546f6b656e207472616e73666572206973206e6f7420617070726f766564206f72206e6f74206f776e657242616c616e6365206f66206f776e6572206973206c657373207468616e20696e64657841646472657373207368616c6c20626520656e642075736572206163636f756e742e4d6573736167652073656e64657220697320657175616c20746f20746f6b656e20726563697069656e7420616464726573735472616e7366657220746f206164647265737320302069732070726f68696269746564546f6b656e206f776e65722063616e206e6f7420617070726f76652068696d73656c6620746f207472616e7366657220686973206f776e20746f6b656e734d6573736167652073656e646572206973206e6f7420617070726f7665642062792074686520746f6b656e206f776e6572a165627a7a723058202e84cb0fe15de858d75ccd31061538a80c49d52e21591c14aac5326024417f9c002968747470733a2f2f73332d75732d776573742d322e616d617a6f6e6177732e636f6d2f756461636974792d626c6f636b636861696e2f63617073746f6e652f",
  "source": "pragma solidity >=0.4.21 <0.6.0;\r\n\r\nimport \"./ERC721Mintable.sol\";\r\nimport \"./Verifier.sol\";\r\n\r\ncontract SolnSquareVerifier is ERC721Metadata, Verifier {\r\n\r\n    struct Solution {\r\n        bytes32 hash;\r\n        address submitterAddress;\r\n        bool hasToken;\r\n    }\r\n\r\n    Solution[] solutions;\r\n\r\n    mapping (address => Solution) addressToSolution;\r\n\r\n    mapping (bytes32 => Solution) uniqueSolutions;\r\n\r\n    event SolutionAdded(bytes32 proofHash, address submitterAddress);\r\n\r\n    constructor(string memory name, string memory symbol) ERC721Metadata(name, symbol, \"https://s3-us-west-2.amazonaws.com/udacity-blockchain/capstone/\") public {}\r\n\r\n    function addSolution\r\n    (\r\n        uint[2] memory a,\r\n        uint[2] memory a_p,\r\n        uint[2][2] memory b,\r\n        uint[2] memory b_p,\r\n        uint[2] memory c,\r\n        uint[2] memory c_p,\r\n        uint[2] memory h,\r\n        uint[2] memory k,\r\n        uint[2] memory input\r\n    )\r\n    public\r\n    {\r\n        bytes32 proofHash = createProofHash(a, a_p, b, b_p, c, c_p, h, k, input);\r\n        require(uniqueSolutions[proofHash].submitterAddress == address(0), \"Solution exists already\");\r\n\r\n        bool isValid = verifyTx(a, a_p, b, b_p, c, c_p, h, k, input);\r\n        require(isValid == true, \"Solution is not valid\");\r\n\r\n        Solution memory solution =  Solution({\r\n        hash: createProofHash(a, a_p, b, b_p, c, c_p, h, k, input), submitterAddress: msg.sender, hasToken: false});\r\n        solutions.push(solution);\r\n        addressToSolution[msg.sender] = solution;\r\n        uniqueSolutions[solution.hash] = solution;\r\n\r\n        emit SolutionAdded(proofHash, msg.sender);\r\n    }\r\n\r\n    function mint(address to, uint tokenId)\r\n    public\r\n    {\r\n        Solution memory solution = addressToSolution[to];\r\n        require(solution.hash > 0, \"Solution does not exist\");\r\n        require(solution.hasToken == false, \"Solution had been used for token minting already\");\r\n        _mint(to, tokenId);\r\n        addressToSolution[to].hasToken = true;\r\n        setTokenURI(tokenId);\r\n    }\r\n\r\n\r\n    function createProofHash(uint[2] memory a, uint[2] memory a_p, uint[2][2] memory b, uint[2] memory b_p, uint[2] memory c, uint[2] memory c_p, uint[2] memory h, uint[2] memory k, uint[2] memory input)\r\n    internal\r\n    pure\r\n    returns (bytes32)\r\n    {\r\n        bytes32 keyBytes = keccak256(abi.encodePacked(a, a_p, b, b_p, c, c_p, h, k, input));\r\n        return keyBytes;\r\n    }\r\n}\r\n\r\n\r\n//contract Verifier {\r\n//    function verifyTx(uint[2] memory a, uint[2] memory a_p, uint[2][2] memory b, uint[2] memory b_p, uint[2] memory c, uint[2] memory c_p, uint[2] memory h, uint[2] memory k, uint[2] memory input) public returns (bool r);\r\n//}\r\n\r\n// TODO [+] define a contract call to the zokrates generated solidity contract <Verifier> or <renamedVerifier>\r\n\r\n// TODO [+] define another contract named SolnSquareVerifier that inherits from your ERC721Mintable class\r\n\r\n// TODO [+] define a solutions struct that can hold an index & an address\r\n\r\n// TODO [+] define an array of the above struct\r\n\r\n// TODO [+] define a mapping to store unique solutions submitted\r\n\r\n// TODO [+] Create an event to emit when a solution is added\r\n\r\n// TODO Create a function to add the solutions to the array and emit the event\r\n\r\n// TODO Create a function to mint new NFT only after the solution has been verified\r\n//  - make sure the solution is unique (has not been used before)\r\n//  - make sure you handle metadata as well as tokenSuplly",
  "sourcePath": "F:\\Git Clones\\Blockchain-ND-Capstone\\eth-contracts\\contracts\\SolnSquareVerifier.sol",
  "compiler": {
    "name": "solc",
    "version": "0.5.2+commit.1df8f40c.Emscripten.clang"
  },
  "schemaVersion": "3.1.0",
  "updatedAt": "2020-05-13T20:27:44.915Z",
  "networkType": "ethereum",
  "devdoc": {
    "methods": {
      "isApprovedForAll(address,address)": {
        "details": "Tells whether an operator is approved by a given owner\r",
        "params": {
          "operator": "operator address which you want to query the approval of\r",
          "owner": "owner address which you want to query the approval of\r"
        },
        "return": "bool whether the given operator is approved by the given owner\r"
      },
      "setApprovalForAll(address,bool)": {
        "details": "Sets or unsets the approval of a given operator\r An operator is allowed to transfer all tokens of the sender on their behalf\r",
        "params": {
          "approved": "representing the status of the approval to be set\r",
          "to": "operator address to set the approval\r"
        }
      },
      "supportsInterface(bytes4)": {
        "details": "implement supportsInterface(bytes4) using a lookup table\r"
      },
      "tokenByIndex(uint256)": {
        "details": "Gets the token ID at a given index of all the tokens in this contract\r Reverts if the index is greater or equal to the total number of tokens\r",
        "params": {
          "index": "uint256 representing the index to be accessed of the tokens list\r"
        },
        "return": "uint256 token ID at the given index of the tokens list\r"
      },
      "tokenOfOwnerByIndex(address,uint256)": {
        "details": "Gets the token ID at a given index of the tokens list of the requested owner\r",
        "params": {
          "index": "uint256 representing the index to be accessed of the requested tokens list\r",
          "owner": "address owning the tokens list to be accessed\r"
        },
        "return": "uint256 token ID at the given index of the tokens list owned by the requested address\r"
      },
      "totalSupply()": {
        "details": "Gets the total amount of tokens stored by the contract\r",
        "return": "uint256 representing the total amount of tokens\r"
      }
    }
  },
  "userdoc": {
    "methods": {}
  }
}